:020000040000FA
:1000000078100020850100009F010000A101000080
:1000100000000000000000000000000000000000E0
:10002000000000000000000000000000A30100002C
:100030000000000000000000A5010000A701000072
:10004000A9010000A9010000A9010000A901000008
:10005000A901000000000000A9010000A9010000A2
:10006000A9010000A9010000A9010000A9010000E8
:10007000A9010000A9010000A9010000A9010000D8
:10008000A9010000A9010000A9010000A9010000C8
:10009000A9010000A9010000A9010000A9010000B8
:1000A000A9010000A90100000000000000000000FC
:1000B0000000000000000000000000000000000040
:1000C00000F002F800F03EF80CA030C80838241800
:1000D0002D18A246671EAB4654465D46AC4201D180
:1000E00000F030F87E460F3E0FCCB6460126334274
:1000F00000D0FB1AA246AB46334318472406000043
:1001000044060000103A02D378C878C1FAD85207E2
:1001100001D330C830C101D504680C6070470000BD
:100120000023002400250026103A01D378C1FBD813
:10013000520700D330C100D50B6070471FB51FBDFB
:1001400010B510BD00F04BF81146FFF7F7FF00F0B7
:100150000FF900F063F803B4FFF7F2FF03BC00F0FF
:1001600067F80000401E00BF00BF00BF00BF00BF17
:1001700000BF00BF00BF00BF00BF00BF00BFF1D184
:100180007047000003210C4802680A4302600B48D4
:1001900002680A4302600A4880470A480047FEE7AF
:1001A000FEE7FEE7FEE7FEE7FEE700000648074938
:1001B000074A084B704700002405004054050040E2
:1001C00041020000C10000007800002078100020EB
:1001D00078080020780800207047704770477546FF
:1001E00000F022F8AE46050069465346C008C0003C
:1001F000854618B020B5FFF7D9FF60BC0027490835
:10020000B6460026C0C5C0C5C0C5C0C5C0C5C0C5AE
:10021000C0C5C0C5403D49008D4670470446C04634
:10022000C0462046FFF797FF00487047180000209F
:1002300001491820ABBEFEE726000200704700000F
:1002400010B500F05FF8002805D00748074948605E
:10025000C8130749886100F039F8002802D001204E
:100260000449886010BD0000DFFF07C000050040A2
:10027000006C00400006004010B5032000F0B2F80A
:10028000032000F0B9F8142000F094F8032000F0E7
:10029000BBF8502000F08EF810BD00000022094B82
:1002A0001A6000200AE0084A115C01228A40054BCE
:1002B0001B681A43034B1A60421C90B20E28F2DBF3
:1002C0007047000010000020000000200C48008C47
:1002D000C0B2012812D10A48808C0007000F002804
:1002E0000CD10748806AF0210840402806D1044814
:1002F000C06A0840002801D1012070470020FCE7B7
:10030000C00F00F01948008CC0B201282CD117484A
:10031000808C0007000F002826D11448806AF02145
:100320000840002806D11148C06A0840002801D1C1
:10033000012070470D48806AF0210840102806D13E
:100340000A48C06A0840002801D10120F1E70748A7
:10035000806AF0210840302806D10448C06A08406D
:10036000002801D10120E4E70020E2E7C00F00F0FF
:10037000FFF794FF1CE000F04FF800F093F8FFF750
:100380007BFF00F0AFF8FFF777FF00F0CFF8FFF743
:1003900073FF00F0EDF8FFF76FFF00F011F9FFF7C2
:1003A0006BFF00F053F9FFF767FF642000F002F8DD
:1003B000E1E7000001B505E00098401E0090034809
:1003C000FFF7D0FE00980028F6D108BDE703000033
:1003D00010B58A0005231B07072424021B1984007B
:1003E0001A5110BD03210522120707231B02D21840
:1003F0008300D1507047000001218140014AD16043
:10040000704700000005005001218140014A9160C1
:10041000704700000005005010B50820FFF7E2FF0C
:100420000520FFF7DFFF0320FFF7DCFF0820FFF7C1
:10043000E3FF0520FFF7E8FF0320FFF7E5FF642057
:10044000FFF7B8FF0820FFF7DFFF0520FFF7D4FF15
:100450006420FFF7AFFF0520FFF7D6FF0320FFF76B
:10046000CBFF6420FFF7A6FF0320FFF7CDFFFF209F
:100470002D30FFF79FFF0820FFF7BEFF0520FFF795
:10048000BBFF0320FFF7B8FFFF20F530FFF792FF17
:100490000820FFF7B9FF0520FFF7B6FF0320FFF79D
:1004A000B3FF10BD70B5002407E00B48065D0121C5
:1004B0003046FFF78DFF601C84B20E2CF5DB074839
:1004C0000569074909680D40002D03D0294602201F
:1004D00000F006F970BD000000000020000500508B
:1004E00010000020F8B5002417E00D48055D032139
:1004F0002846FFF76DFF0B4806690B4909680E4057
:100500000127AF40BE4203D03146032000F0E8F897
:1005100001212846FFF75CFF641C0E2CE5D3F8BDD3
:1005200000000020000500501000002070B50024DD
:1005300007E00C48065D03213046FFF749FF601CC9
:1005400084B20E2CF5DB08480569084909680D409E
:1005500006480068854203D02946042000F0C0F810
:1005600070BD0000000000200005005010000020B9
:10057000F8B500241AE00F48055D01212846FFF771
:1005800027FF0D4806690D4909680E400120A84063
:100590000A490F688743BE4203D03146052000F068
:1005A0009FF803212846FFF713FF641C0E2CE2D3AB
:1005B000F8BD0000000000200005005010000020E1
:1005C000F8B5002406E01E48055D01212846FFF726
:1005D000FFFE641C0E2CF6D31A4806691A490968F6
:1005E0000E40002E03D03146062000F079F800249A
:1005F00022E01348055D01200521090707221202A8
:100600008918AA0088502846FFF7FEFE0D480069A9
:100610000D490968084006460127AF40BE4203D095
:100620003146062000F05CF82846FFF7E5FE012180
:100630002846FFF7CDFE641C0E2CDAD3F8BD00006F
:10064000000000200005005010000020F8B5002434
:1006500006E02048055D03212846FFF7B9FE641C2B
:100660000E2CF6D31C4806691C4909680E401B482D
:100670000068864203D03146072000F031F800249C
:1006800025E01448055D0120052109070722120213
:100690008918AA0088502846FFF7AEFE0E48006968
:1006A0000E490968084006460120A8400B490F681A
:1006B0008743BE4203D03146072000F011F8284698
:1006C000FFF7A2FE03212846FFF782FE641C0E2CD2
:1006D000D7D3F8BD00000020000500501000002016
:1006E00004461CE025460820FFF77CFE0820FFF7A3
:1006F0008BFE7D20C000FFF75DFE0CE00820FFF7B9
:100700007BFEC820FFF756FE0820FFF77DFEFF2086
:10071000F530FFF74FFE28466D1E0028EED1E1E7C9
:100720004007000000000020180000000401000045
:100730005807000018000020601000002001000091
:100740001412100F0C0B090102001B1A18150000DF
:08075000000000000024F40089
:04000005000000C136
:00000001FF
