:020000040000FA
:1000000060110020D5010000EF010000F1010000A7
:1000100000000000000000000000000000000000E0
:10002000000000000000000000000000F3010000DC
:100030000000000000000000F5010000F7010000D2
:10004000F9010000F901000001070000F9010000BA
:10005000F9010000000000009D050000F90100000A
:10006000F9010000F9010000F9010000F9010000A8
:10007000F9010000F9010000F9010000F901000098
:10008000F9010000F9010000F9010000F901000088
:10009000F9010000F9010000F9010000F901000078
:1000A000F9010000F901000000000000000000005C
:1000B0000000000000000000000000000000000040
:1000C00000F002F800F046F80CA030C808382418F8
:1000D0002D18A246671EAB4654465D46AC4201D180
:1000E00000F038F87E460F3E0FCCB646012633426C
:1000F00000D0FB1AA246AB463343184774130000E6
:1001000094130000103A02D378C878C1FAD8520785
:1001100001D330C830C101D504680C6070470000BD
:100120000023002400250026103A01D378C1FBD813
:10013000520700D330C100D50B60704710B5642959
:1001400002D100F0A9F810BD002010BD1FB51FBDE1
:1001500010B510BD00F0F8F91146FFF7F7FF00F0F9
:10016000B3FE00F010FA03B4FFF7F2FF03BC00F097
:100170002EFB0000401E00BF00BF00BF00BF00BF3D
:1001800000BF00BF00BF00BF00BF00BF00BFF1D174
:1001900070470000401E00BF00BF00BF00BF00BF8F
:1001A00000BF00BF00BF00BF00BF00BF00BFF1D154
:1001B00070470000401E00BF00BF00BF00BF00BF6F
:1001C00000BF00BF00BF00BF00BF00BF00BFF1D134
:1001D0007047000003210C4802680A4302600B4884
:1001E00002680A4302600A4880470A480047FEE75F
:1001F000FEE7FEE7FEE7FEE7FEE7000006480749E8
:10020000074A084B70470000240500405405004091
:10021000C9060000C100000060010020601100203C
:100220006009002060090020704700000FB40549F4
:1002300010B503AA029800F047F910BC08BC04B03E
:10024000184700000400002070B504468569006866
:10025000C10601D5302600E02026C00707D070BDBA
:1002600062683046A1689047206A401C20626D1E7B
:10027000F6D570BD70B5044685690078C00707D112
:1002800070BD6268A16820209047206A401C2062EF
:100290006D1EF6D570BD0000F7B5002575291068F4
:1002A000009914A611D0C046C046002802DA404288
:1002B00011A608E0009909688A0701D50FA602E097
:1002C000490704D50EA6012501E0C046C046009F9F
:1002D0000024243704E000F00BF930313955641C58
:1002E0000028F8D12B4632462146009800F094F8B9
:1002F000FEBD0000000000002D0000002B000000EB
:1003000020000000F3B50446002081B020622046A2
:10031000E168884700287AD0252802D06268A16861
:1003200071E0E16820460025884706460020E0612C
:100330000746A0612A2E0AD0304600F041FA002874
:1003400027D0B8000019303E0090866119E002986D
:10035000BA00121902C8916102902046E1688847EC
:10036000012F064617D1E06900281FDA20208543B7
:100370001CE000980A2180694843009980193038B0
:1003800088612046E1688847064600F019FA00288F
:10039000EFD1012F0AD02E2E08D12046E1688847E0
:1003A0000646202005437F1C022FC3DBA0690028DE
:1003B00003DA4042A06101200543E80701D0102084
:1003C0008543002E23D030464138192803D8012018
:1003D000C00205432036204625603146029A154664
:1003E000FFF7ACFE00280BD0012806D0ED1DE80871
:1003F000C000083002908AE709E02D1D029586E7CB
:1004000062683046A1689047206A401C7EE7206AF7
:10041000FEBD704770477047FFB504460D4681B07A
:10042000243000902168880604D51022E0699143A9
:10043000216000E00120A84201DD471B00E0002709
:100440000498A1697A191018081AA0612078C006CA
:1004500002D42046FFF7F8FE002608E00398626801
:10046000A168805D9047206A401C761C2062049839
:100470008642F3DB2078C0060AD52046FFF7E4FE6B
:1004800006E06268A16830209047206A401C206224
:1004900038467F1E0028F4DC07E000986268A168F7
:1004A000405D9047206A401C206228466D1E00284F
:1004B000F3DC2046FFF7DEFE2078000602D502209E
:1004C00005B0F0BD0120FBE7084B70B50D467B443D
:1004D00000F027F80446284600F02CFC002802D043
:1004E0000020C04370BD204670BD000069080000B8
:1004F00001468008081A02091018020A1018020C96
:100500001018C008820012185200891A01E0401C1D
:100510000A390A29FBD2704701694A1C026108782E
:10052000704700B58FB002910021059105490193F4
:1005300079440391114604906846FFF7E3FE0FB03B
:1005400000BD0000E5FFFFFF754600F023F8AE4652
:10055000050069465346C008C000854618B020B55E
:10056000FFF74CFE60BC00274908B6460026C0C510
:10057000C0C5C0C5C0C5C0C5C0C5C0C5C0C5403D5B
:1005800049008D4670470446C046C0462046FFF7E6
:10059000EAFD00000048704700010020F0B585B07A
:1005A0002648056900202649C86300263FE014203C
:1005B00070432449096844180120B0402249096861
:1005C0000840002831D0E068C043684021680840F6
:1005D00007463946204600F06DFE1848006968401D
:1005E0000390039800280ED003980543E068C043A9
:1005F00068402168084000902046009900F05AFEAB
:100600000098074300BFA068A84338400190606885
:10061000284038400290019902980843002803D0EE
:10062000226901990298904700BF701CC6B2074822
:1006300000788642BBDB05B0F0BD0000000500502D
:10064000406100404C000020440000204900002090
:1006500010B5002819DA1A4A03071B0F083B9B083C
:100660009B00D2588307DC0EFF23A3409A438B07DD
:100670001B0E8407E40EA3401A43114B0407240FFA
:10068000083CA408A4001A5118E00E4A03231B02D8
:10069000D21883089B00D2588307DC0EFF23A340A7
:1006A0009A438B071B0E8407E40EA3401A43054BA5
:1006B000032424021B198408A4001A5110BD000051
:1006C0001CED00E000E100E010B500F0C7FB0028E1
:1006D00005D0074807494860C8130749886100F0FA
:1006E000A1FB002802D001200449886010BD000051
:1006F000DFFF07C000050040006C0040000600401E
:100700001CB524488068002824D000202149886036
:1007100021488069C1B2214800F0E7F80446002C66
:1007200008D0012069460870019468461C49096890
:1007300088470EE01948C06818498968401A01289E
:1007400007D100206946087068461549096888473E
:1007500000BF00BF0F48C069002805D000200D4928
:10076000C861032000F04CFD0A48406A00280FD001
:100770000020084948620848803804680460022064
:10078000694608700194684605490968884700BFB2
:100790001CBD00000021004000250040D0000020CA
:1007A0003C00002030B47446641E2578641CAB42C3
:1007B00004D3635D5B00E31830BC18471D46F8E7BF
:1007C00030380A2801D2012070470020704700BF4E
:1007D000FEE7000010B50648C06805498968401A60
:1007E00002D000F007F801E000F032F810BD000080
:1007F000E000002008B511480078022802D001204E
:100800000F49886069460F4800F048F8002802D078
:1008100000F01EF808BD3220FFF7CCFC80200A490A
:100820008860684600780949C86102200349087059
:1008300080200549486000BFECE700004000002030
:1008400000200040E0000020002300400025004080
:100850001CB501200549C860054908700320694698
:10086000087068460349096888471CBD002000409D
:10087000400000203C0000200020054908700120B5
:100880000449C860486000200349086070470000C0
:100890004000002000200040002500400246D068B3
:1008A0009368C01A0AD09068938818401368185C3F
:1008B00008709068401C9060002070470520FCE79D
:1008C0000346002901D10E207047002A03D0501E94
:1008D0001040002801D00920F6E71960501E9880CA
:1008E00000209860D86000BFEEE70246D0689368A9
:1008F000C01A9388984209D8D06893881840136822
:100900001954D068401CD060002070470420FCE7D8
:1009100010B502460B480068002801D1082010BD20
:1009200009480078824201DB0720F8E71420504391
:10093000044C24680319054800691C6820400860BD
:100940000020ECE74C00002049000020000500508A
:10095000F0B5024637480068002801D10820F0BDF4
:1009600035480078824201DB0720F8E70020334B4E
:10097000D8633348046933480068002802D1580618
:10098000314B5860012090402E4B1B6818432D4B73
:100990001860002314205043264D2D684019C36071
:1009A000002142E001238B40184614235343214D7C
:1009B0002D68EB580340002B36D025460540002D0E
:1009C00002D003231B040EE001235B0414255543CE
:1009D000184E3668AD19ED68054314265643154F79
:1009E0003F68F619F56005252D0707263602AD1973
:1009F0008E00AD5903263604B54305263607072772
:100A00003F02F6198F00F55105252D0707263602FE
:100A1000AD198E00AD591D430526360707273F0245
:100A2000F6198F00F55100BF491C2029BAD30020C8
:100A300095E700004C000020490000204061004084
:100A4000000500504400002000630040F8B5044653
:100A50000D4616461F4620480068002801D1082090
:100A6000F8BD002F01D10720FAE71C4800781C4987
:100A70000978884201DB0420F2E728463043174911
:100A8000097814225143144A1268505013480078D0
:100A90001421484310490968401845600F48007800
:100AA000142148430C490968401886600B480078B7
:100AB000142148430849096840180761074800782D
:100AC000207006480078401C04490870207800F027
:100AD000BDFB0020C4E700004C00002049000020BE
:100AE00048000020FFB585B004460F460E9D00204B
:100AF000039002907B4908707B4907980860002F9B
:100B000002D1072009B0F0BDB88882B277483968B1
:100B1000FFF7D6FE0646002E01D03046F2E7B88930
:100B200082B27348B968FFF7CBFE0646002E01D0AB
:100B30003046E7E7607800F0D8FA607800F0EEFA27
:100B40002078002100F0BEFA60786A49C8602078F9
:100B50004861A0684862637822780020A16800F0AC
:100B6000E9FB6079002804D00E2062494031C86258
:100B700003E000205F494031C8622079022874D127
:100B8000A07800F0B2FAA178012088405A49486064
:100B90000020C04357490861A0788860554840301C
:100BA000C06A0121084353494031C862E1780120FD
:100BB000884052490860E0780022032100920191A8
:100BC00001990904009A9200114305221207072394
:100BD0001B02D2188300D15000BFE1780120884069
:100BE0000390E1780120884002902888002810D1E5
:100BF000434B4448029A0399FFF728FF0646002E0C
:100C000001D030467EE73F4800780002FF30288060
:100C100008E02888FF2801DA072073E728880012F7
:100C20003849087004A937480078FFF771FE064676
:100C3000002E01D0304665E732480078FFF788FE85
:100C40000646002E01D030465CE7E178012088405E
:100C500004990840002804D1012000F0D1FA29E0CD
:100C600003E0002000F0CCFA24E02079012811D123
:100C70002888002807D12448007828802248007856
:100C8000401C21490870204600F0D2FB0120154984
:100C900008700FE02888002807D11B4800782880BA
:100CA00019480078401C1849087000F0A1FB012089
:100CB0000C4908700020C04314498860A1208000BE
:100CC0004860022001218140114A116000BF08994B
:100CD000FFF7BEFC0220012181400E4A116000BFD7
:100CE00000200FE7400000203C000020D000002042
:100CF000E0000020002500400005005038000020E2
:100D0000610D000035000020340000200023004069
:100D100080E200E000E100E070B5044621460448AE
:100D2000FFF7E3FD0546022000F06AFA284670BD91
:100D3000E000002001460020704770B504460E46D2
:100D40000A2C03D131460D20FFF7F7FF00BFE0B2B8
:100D5000FFF7E2FF0546002DF9D1204670BD0000E7
:100D6000F8B504460D462846204014490968084055
:100D700000280FD0694612480078FFF7C9FD0646E3
:100D8000002E00D0F8BD0098044028460099884302
:100D9000054600BF094800682840002803D001200C
:100DA00000F02EFA07E0054800682040002802D035
:100DB000002000F025FA00BFE4E700003800002022
:100DC0003500002010B5002013490860012081077C
:100DD000086000BF104800680028FBD0022000F027
:100DE00063F901208107C86000BF0C4880690121B8
:100DF000090408400028F8D102200949886101202F
:100E00008107886000BF044840680028FBD00020AC
:100E10000149486010BD000000010040000400408E
:100E2000000500400C48008CC0B2012812D10A48CD
:100E3000808C0007000F00280CD10748806AF02141
:100E40000840402806D10448C06A0840002801D163
:100E5000012070470020FCE7C00F00F01948008C0B
:100E6000C0B201282CD11748808C0007000F002841
:100E700026D11448806AF0210840002806D1114884
:100E8000C06A0840002801D1012070470D48806ADF
:100E9000F0210840102806D10A48C06A08400028FE
:100EA00001D10120F1E70748806AF021084030288D
:100EB00006D10448C06A0840002801D10120E4E7B7
:100EC0000020E2E7C00F00F00026FFF77BFF00F0F4
:100ED00043FA082000F000F9052000F0FDF8032097
:100EE00000F0FAF8082000F011F9052000F00EF9E2
:100EF000032000F00BF9CBE03146761C65A0FFF72C
:100F000095F9142000F0D0F8082000F00FF9142013
:100F100000F0CAF8082000F009F9142000F0C4F825
:100F2000082000F003F9142000F0BEF8082000F0BB
:100F3000FDF8142000F0B8F8082000F0F7F81420AD
:100F400000F0B2F8082000F0F1F8142000F0ACF83E
:100F5000052000F0EBF8142000F0A6F8052000F0C2
:100F6000E5F8142000F0A0F8052000F0DFF81420C8
:100F700000F09AF8052000F0D9F8142000F094F859
:100F8000052000F0D3F8142000F08EF8052000F0C2
:100F9000CDF8142000F088F8032000F0C7F81420E2
:100FA00000F082F8032000F0C1F8142000F07CF873
:100FB000032000F0BBF8142000F076F8032000F0C6
:100FC000B5F8142000F070F8032000F0AFF81420FA
:100FD00000F06AF8032000F0A9F8C82000F064F8D7
:100FE000052543E001241BE0082000F087F80520D8
:100FF00000F084F8032000F081F82046FFF7BAF8EB
:10100000082000F083F8052000F080F8032000F0AD
:101010007DF87D21C900081BFFF7ACF8E01C84B205
:101020007D20C0008442DFDB01241BE0082000F0AB
:101030006DF8052000F06AF8032000F067F82046FC
:10104000FFF798F8082000F059F8052000F056F84E
:10105000032000F053F87D21C900081BFFF78AF830
:10106000E01C84B27D20C0008442DFDB2846691E7C
:101070008DB20028B6D1082000F048F8052000F015
:1010800045F8032000F042F8FF20913000F00CF802
:1010900032E700005061737320636F756E74202017
:1010A0002537640A0000000001B505E00098401EE5
:1010B00000900348FFF76EF800980028F6D108BDAD
:1010C000E703000010B58A0005231B07072424024C
:1010D0001B1984001A5110BD032105221207072392
:1010E0001B02D2188300D15070470321052212073A
:1010F00007231B02D2188300D15070470121814081
:10110000014AD16070470000000500500121814074
:10111000014A9160704700000005005001218140A4
:10112000014A916070470000000500500123834090
:101130001946064B5B68C340DA07D20F002A02D17A
:10114000024B996001E0014BD960704700050050E7
:1011500010B508480078012802D0022807D102E023
:10116000FFF78AFB04E003200249087000E000BF9B
:1011700000BF10BD4000002010B5104800780028C6
:1011800002D0032817D112E004200D490860012085
:101190000C4908600C48C0680B498968401A02D0A5
:1011A000FFF728FB02E001200449087004E0022058
:1011B0000249087000E000BF00BF10BD40000020E1
:1011C0000025004000200040E000002010B5094844
:1011D0000078012807D0022804D0032806D1FFF7A1
:1011E0004BFB04E000BFFFF7F5FA00E000BF00BFD3
:1011F00010BD00004000002010B5FFF73DFB10BD02
:1012000010B504462300FFF7CDFA0504070D0A10B8
:101210001300FFF79DFF0CE0FFF7AEFF09E0FFF7BB
:10122000D5FF06E000F008F803E0FFF7E5FF00E077
:1012300000BF00BF10BD000010B5034800780128B2
:1012400001D1FFF7D7FA10BD4000002010B50146CC
:10125000002029E014224A43154B1B689A580123A9
:1012600083401A40002A1ED00522120707231B02C2
:10127000D2188300D25803231B049A4305231B076B
:10128000072424021B1984001A5105221207072380
:101290001B02D2188300D25805231B0707242402FF
:1012A0001B1984001A51401C2028D3D310BD000004
:1012B0004C000020F0B502460C46002037E0012328
:1012C0008340194623460B40002B2FD0D5680D4094
:1012D000002D05D101235B04D5680D43D56004E0E2
:1012E00003231B04D5688D43D56005252D070726EC
:1012F0003602AD198600AD5903263604B5430526DE
:10130000360707273F02F6198700F55105252D07F7
:1013100007263602AD198600AD591D43052636074E
:1013200007273F02F6198700F55100BF401C20280F
:10133000C5D3F0BD30B5012800DD30BDC400054D7A
:101340002951C40064192271C4006419637100BF7B
:10135000F3E70000F000002000B587B000BF0020D8
:1013600006900C480290402003900B4804904020C7
:10137000059006A80323094A02A900900848FFF730
:10138000B1FB0849086000BF00200749087007B09A
:1013900000BD00005000002090000020AD130000B0
:1013A00014000020200000200C00002008B5017867
:1013B0000E4A1170114642684A6009780B49496823
:1013C00000910178022905D108490978074949683F
:1013D000009108BD0178012901D100BFFEE7034952
:1013E000097802494968009100BFF2E72C0000200B
:1013F00004200C49086000200B498860C861094836
:101400004030C06A4008400006494031C8620020B0
:10141000C04304498860086101200449886008606D
:1014200070470000002500400021004000200040DF
:1014300004210C4A116000210B4A9160D1610949D5
:101440004031C96A01221143064A4032D162C17853
:10145000044A1161817891600121044A9160116010
:10146000704700000025004000210040002000409F
:101470009014000000000020500000000401000053
:10148000E0140000500000201011000020010000B6
:101490000024F40000000000000000000000000034
:1014A0000000000012141F1F000000000050270061
:1014B000000000000000000000000000000000002C
:1014C000000000000100000000000000000000001B
:1014D000000000000000000000000000000000000C
:04000005000000C136
:00000001FF
